{
  "_format": "hh-sol-artifact-1",
  "contractName": "Voting",
  "sourceName": "contracts/Voting.sol",
  "abi": [
    {
      "inputs": [],
      "stateMutability": "nonpayable",
      "type": "constructor"
    },
    {
      "anonymous": false,
      "inputs": [
        {
          "indexed": true,
          "internalType": "uint256",
          "name": "candidateId",
          "type": "uint256"
        },
        {
          "indexed": false,
          "internalType": "string",
          "name": "name",
          "type": "string"
        }
      ],
      "name": "CandidateAdded",
      "type": "event"
    },
    {
      "anonymous": false,
      "inputs": [
        {
          "indexed": true,
          "internalType": "address",
          "name": "voter",
          "type": "address"
        },
        {
          "indexed": true,
          "internalType": "uint256",
          "name": "candidateId",
          "type": "uint256"
        }
      ],
      "name": "VoteCasted",
      "type": "event"
    },
    {
      "anonymous": false,
      "inputs": [
        {
          "indexed": true,
          "internalType": "address",
          "name": "voter",
          "type": "address"
        }
      ],
      "name": "VoterRegistered",
      "type": "event"
    },
    {
      "anonymous": false,
      "inputs": [],
      "name": "VotingEnded",
      "type": "event"
    },
    {
      "anonymous": false,
      "inputs": [],
      "name": "VotingStarted",
      "type": "event"
    },
    {
      "inputs": [
        {
          "internalType": "string",
          "name": "_name",
          "type": "string"
        }
      ],
      "name": "addCandidate",
      "outputs": [],
      "stateMutability": "nonpayable",
      "type": "function"
    },
    {
      "inputs": [],
      "name": "admin",
      "outputs": [
        {
          "internalType": "address",
          "name": "",
          "type": "address"
        }
      ],
      "stateMutability": "view",
      "type": "function"
    },
    {
      "inputs": [
        {
          "internalType": "uint256",
          "name": "",
          "type": "uint256"
        }
      ],
      "name": "candidates",
      "outputs": [
        {
          "internalType": "uint256",
          "name": "id",
          "type": "uint256"
        },
        {
          "internalType": "string",
          "name": "name",
          "type": "string"
        },
        {
          "internalType": "uint256",
          "name": "voteCount",
          "type": "uint256"
        }
      ],
      "stateMutability": "view",
      "type": "function"
    },
    {
      "inputs": [],
      "name": "candidatesCount",
      "outputs": [
        {
          "internalType": "uint256",
          "name": "",
          "type": "uint256"
        }
      ],
      "stateMutability": "view",
      "type": "function"
    },
    {
      "inputs": [],
      "name": "endVoting",
      "outputs": [],
      "stateMutability": "nonpayable",
      "type": "function"
    },
    {
      "inputs": [
        {
          "internalType": "uint256",
          "name": "_candidateId",
          "type": "uint256"
        }
      ],
      "name": "getCandidate",
      "outputs": [
        {
          "internalType": "uint256",
          "name": "",
          "type": "uint256"
        },
        {
          "internalType": "string",
          "name": "",
          "type": "string"
        },
        {
          "internalType": "uint256",
          "name": "",
          "type": "uint256"
        }
      ],
      "stateMutability": "view",
      "type": "function"
    },
    {
      "inputs": [],
      "name": "getTotalVotes",
      "outputs": [
        {
          "internalType": "uint256",
          "name": "",
          "type": "uint256"
        }
      ],
      "stateMutability": "view",
      "type": "function"
    },
    {
      "inputs": [],
      "name": "getWinner",
      "outputs": [
        {
          "internalType": "uint256",
          "name": "winnerId",
          "type": "uint256"
        },
        {
          "internalType": "string",
          "name": "winnerName",
          "type": "string"
        },
        {
          "internalType": "uint256",
          "name": "winnerVoteCount",
          "type": "uint256"
        }
      ],
      "stateMutability": "view",
      "type": "function"
    },
    {
      "inputs": [
        {
          "internalType": "address",
          "name": "_voter",
          "type": "address"
        }
      ],
      "name": "registerVoter",
      "outputs": [],
      "stateMutability": "nonpayable",
      "type": "function"
    },
    {
      "inputs": [],
      "name": "startVoting",
      "outputs": [],
      "stateMutability": "nonpayable",
      "type": "function"
    },
    {
      "inputs": [
        {
          "internalType": "uint256",
          "name": "_candidateId",
          "type": "uint256"
        }
      ],
      "name": "vote",
      "outputs": [],
      "stateMutability": "nonpayable",
      "type": "function"
    },
    {
      "inputs": [
        {
          "internalType": "address",
          "name": "",
          "type": "address"
        }
      ],
      "name": "voters",
      "outputs": [
        {
          "internalType": "bool",
          "name": "hasVoted",
          "type": "bool"
        },
        {
          "internalType": "uint256",
          "name": "votedCandidateId",
          "type": "uint256"
        },
        {
          "internalType": "bool",
          "name": "isRegistered",
          "type": "bool"
        }
      ],
      "stateMutability": "view",
      "type": "function"
    },
    {
      "inputs": [],
      "name": "votingActive",
      "outputs": [
        {
          "internalType": "bool",
          "name": "",
          "type": "bool"
        }
      ],
      "stateMutability": "view",
      "type": "function"
    }
  ],
  "bytecode": "0x6080604052348015600f57600080fd5b50336000806101000a81548173ffffffffffffffffffffffffffffffffffffffff021916908373ffffffffffffffffffffffffffffffffffffffff1602179055506000600260006101000a81548160ff021916908315150217905550611e6e8061007a6000396000f3fe608060405234801561001057600080fd5b50600436106100cf5760003560e01c8063408e27271161008c5780639a0e7d66116100665780639a0e7d66146101f2578063a3ec138d14610210578063c3403ddf14610242578063f851a4401461024c576100cf565b8063408e272714610198578063462e91ec146101b65780638e7ea5b2146101d2576100cf565b80630121b93f146100d45780631ec6b60a146100f05780632d35a8a2146100fa5780633477ee2e1461011857806335b8e8201461014a57806338db6dd31461017c575b600080fd5b6100ee60048036038101906100e99190611100565b61026a565b005b6100f861053e565b005b6101026106aa565b60405161010f919061113c565b60405180910390f35b610132600480360381019061012d9190611100565b6106b0565b604051610141939291906111e7565b60405180910390f35b610164600480360381019061015f9190611100565b610762565b604051610173939291906111e7565b60405180910390f35b61019660048036038101906101919190611283565b61089d565b005b6101a0610acb565b6040516101ad91906112cb565b60405180910390f35b6101d060048036038101906101cb919061141b565b610ade565b005b6101da610cb5565b6040516101e9939291906111e7565b60405180910390f35b6101fa610ed2565b604051610207919061113c565b60405180910390f35b61022a60048036038101906102259190611283565b610f28565b60405161023993929190611464565b60405180910390f35b61024a610f6c565b005b610254611092565b60405161026191906114aa565b60405180910390f35b600260009054906101000a900460ff166102b9576040517f08c379a00000000000000000000000000000000000000000000000000000000081526004016102b090611511565b60405180910390fd5b600460003373ffffffffffffffffffffffffffffffffffffffff1673ffffffffffffffffffffffffffffffffffffffff16815260200190815260200160002060020160009054906101000a900460ff16610348576040517f08c379a000000000000000000000000000000000000000000000000000000000815260040161033f9061157d565b60405180910390fd5b600460003373ffffffffffffffffffffffffffffffffffffffff1673ffffffffffffffffffffffffffffffffffffffff16815260200190815260200160002060000160009054906101000a900460ff16156103d8576040517f08c379a00000000000000000000000000000000000000000000000000000000081526004016103cf906115e9565b60405180910390fd5b6000811180156103ea57506001548111155b610429576040517f08c379a000000000000000000000000000000000000000000000000000000000815260040161042090611655565b60405180910390fd5b6001600460003373ffffffffffffffffffffffffffffffffffffffff1673ffffffffffffffffffffffffffffffffffffffff16815260200190815260200160002060000160006101000a81548160ff02191690831515021790555080600460003373ffffffffffffffffffffffffffffffffffffffff1673ffffffffffffffffffffffffffffffffffffffff168152602001908152602001600020600101819055506003600082815260200190815260200160002060020160008154809291906104f2906116a4565b9190505550803373ffffffffffffffffffffffffffffffffffffffff167fd0e6c39f2e086dc49f1524b47725526a56945cd1ff661f37976f1725a1e5698660405160405180910390a350565b60008054906101000a900473ffffffffffffffffffffffffffffffffffffffff1673ffffffffffffffffffffffffffffffffffffffff163373ffffffffffffffffffffffffffffffffffffffff16146105cc576040517f08c379a00000000000000000000000000000000000000000000000000000000081526004016105c39061175e565b60405180910390fd5b600260009054906101000a900460ff161561061c576040517f08c379a0000000000000000000000000000000000000000000000000000000008152600401610613906117ca565b60405180910390fd5b600060015411610661576040517f08c379a000000000000000000000000000000000000000000000000000000000815260040161065890611836565b60405180910390fd5b6001600260006101000a81548160ff0219169083151502179055507f877e2548498f42b7975a186b94ef1d32c86d420b7b806dd2be2bea293b89590460405160405180910390a1565b60015481565b60036020528060005260406000206000915090508060000154908060010180546106d990611885565b80601f016020809104026020016040519081016040528092919081815260200182805461070590611885565b80156107525780601f1061072757610100808354040283529160200191610752565b820191906000526020600020905b81548152906001019060200180831161073557829003601f168201915b5050505050908060020154905083565b600060606000808411801561077957506001548411155b6107b8576040517f08c379a00000000000000000000000000000000000000000000000000000000081526004016107af90611655565b60405180910390fd5b600060036000868152602001908152602001600020604051806060016040529081600082015481526020016001820180546107f290611885565b80601f016020809104026020016040519081016040528092919081815260200182805461081e90611885565b801561086b5780601f106108405761010080835404028352916020019161086b565b820191906000526020600020905b81548152906001019060200180831161084e57829003601f168201915b505050505081526020016002820154815250509050806000015181602001518260400151935093509350509193909250565b60008054906101000a900473ffffffffffffffffffffffffffffffffffffffff1673ffffffffffffffffffffffffffffffffffffffff163373ffffffffffffffffffffffffffffffffffffffff161461092b576040517f08c379a00000000000000000000000000000000000000000000000000000000081526004016109229061175e565b60405180910390fd5b600460008273ffffffffffffffffffffffffffffffffffffffff1673ffffffffffffffffffffffffffffffffffffffff16815260200190815260200160002060020160009054906101000a900460ff16156109bb576040517f08c379a00000000000000000000000000000000000000000000000000000000081526004016109b290611902565b60405180910390fd5b600073ffffffffffffffffffffffffffffffffffffffff168173ffffffffffffffffffffffffffffffffffffffff1603610a2a576040517f08c379a0000000000000000000000000000000000000000000000000000000008152600401610a219061196e565b60405180910390fd5b6001600460008373ffffffffffffffffffffffffffffffffffffffff1673ffffffffffffffffffffffffffffffffffffffff16815260200190815260200160002060020160006101000a81548160ff0219169083151502179055508073ffffffffffffffffffffffffffffffffffffffff167fb6be2187d059cc2a55fe29e0e503b566e1e0f8c8780096e185429350acffd3dd60405160405180910390a250565b600260009054906101000a900460ff1681565b60008054906101000a900473ffffffffffffffffffffffffffffffffffffffff1673ffffffffffffffffffffffffffffffffffffffff163373ffffffffffffffffffffffffffffffffffffffff1614610b6c576040517f08c379a0000000000000000000000000000000000000000000000000000000008152600401610b639061175e565b60405180910390fd5b600260009054906101000a900460ff1615610bbc576040517f08c379a0000000000000000000000000000000000000000000000000000000008152600401610bb390611a00565b60405180910390fd5b6000815111610c00576040517f08c379a0000000000000000000000000000000000000000000000000000000008152600401610bf790611a6c565b60405180910390fd5b60016000815480929190610c13906116a4565b9190505550604051806060016040528060015481526020018281526020016000815250600360006001548152602001908152602001600020600082015181600001556020820151816001019081610c6a9190611c38565b50604082015181600201559050506001547fe83b2a43e7e82d975c8a0a6d2f045153c869e111136a34d1889ab7b598e396a382604051610caa9190611d0a565b60405180910390a250565b600060606000600260009054906101000a900460ff1615610d0b576040517f08c379a0000000000000000000000000000000000000000000000000000000008152600401610d0290611d78565b60405180910390fd5b600060015411610d50576040517f08c379a0000000000000000000000000000000000000000000000000000000008152600401610d4790611836565b60405180910390fd5b6000806000600190505b6001548111610db1578260036000838152602001908152602001600020600201541115610d9e57600360008281526020019081526020016000206002015492508091505b8080610da9906116a4565b915050610d5a565b5060008111610df5576040517f08c379a0000000000000000000000000000000000000000000000000000000008152600401610dec90611de4565b60405180910390fd5b6003600082815260200190815260200160002060000154600360008381526020019081526020016000206001016003600084815260200190815260200160002060020154818054610e4590611885565b80601f0160208091040260200160405190810160405280929190818152602001828054610e7190611885565b8015610ebe5780601f10610e9357610100808354040283529160200191610ebe565b820191906000526020600020905b815481529060010190602001808311610ea157829003601f168201915b505050505091509450945094505050909192565b600080600090506000600190505b6001548111610f2057600360008281526020019081526020016000206002015482610f0b9190611e04565b91508080610f18906116a4565b915050610ee0565b508091505090565b60046020528060005260406000206000915090508060000160009054906101000a900460ff16908060010154908060020160009054906101000a900460ff16905083565b60008054906101000a900473ffffffffffffffffffffffffffffffffffffffff1673ffffffffffffffffffffffffffffffffffffffff163373ffffffffffffffffffffffffffffffffffffffff1614610ffa576040517f08c379a0000000000000000000000000000000000000000000000000000000008152600401610ff19061175e565b60405180910390fd5b600260009054906101000a900460ff16611049576040517f08c379a000000000000000000000000000000000000000000000000000000000815260040161104090611511565b60405180910390fd5b6000600260006101000a81548160ff0219169083151502179055507f7a19ed057db79e3c2fa0b97a54b43bef4fce74b31bb6c01af514b9a18a7f70ab60405160405180910390a1565b60008054906101000a900473ffffffffffffffffffffffffffffffffffffffff1681565b6000604051905090565b600080fd5b600080fd5b6000819050919050565b6110dd816110ca565b81146110e857600080fd5b50565b6000813590506110fa816110d4565b92915050565b600060208284031215611116576111156110c0565b5b6000611124848285016110eb565b91505092915050565b611136816110ca565b82525050565b6000602082019050611151600083018461112d565b92915050565b600081519050919050565b600082825260208201905092915050565b60005b83811015611191578082015181840152602081019050611176565b60008484015250505050565b6000601f19601f8301169050919050565b60006111b982611157565b6111c38185611162565b93506111d3818560208601611173565b6111dc8161119d565b840191505092915050565b60006060820190506111fc600083018661112d565b818103602083015261120e81856111ae565b905061121d604083018461112d565b949350505050565b600073ffffffffffffffffffffffffffffffffffffffff82169050919050565b600061125082611225565b9050919050565b61126081611245565b811461126b57600080fd5b50565b60008135905061127d81611257565b92915050565b600060208284031215611299576112986110c0565b5b60006112a78482850161126e565b91505092915050565b60008115159050919050565b6112c5816112b0565b82525050565b60006020820190506112e060008301846112bc565b92915050565b600080fd5b600080fd5b7f4e487b7100000000000000000000000000000000000000000000000000000000600052604160045260246000fd5b6113288261119d565b810181811067ffffffffffffffff82111715611347576113466112f0565b5b80604052505050565b600061135a6110b6565b9050611366828261131f565b919050565b600067ffffffffffffffff821115611386576113856112f0565b5b61138f8261119d565b9050602081019050919050565b82818337600083830152505050565b60006113be6113b98461136b565b611350565b9050828152602081018484840111156113da576113d96112eb565b5b6113e584828561139c565b509392505050565b600082601f830112611402576114016112e6565b5b81356114128482602086016113ab565b91505092915050565b600060208284031215611431576114306110c0565b5b600082013567ffffffffffffffff81111561144f5761144e6110c5565b5b61145b848285016113ed565b91505092915050565b600060608201905061147960008301866112bc565b611486602083018561112d565b61149360408301846112bc565b949350505050565b6114a481611245565b82525050565b60006020820190506114bf600083018461149b565b92915050565b7f566f74696e67206973206e6f7420616374697665000000000000000000000000600082015250565b60006114fb601483611162565b9150611506826114c5565b602082019050919050565b6000602082019050818103600083015261152a816114ee565b9050919050565b7f596f7520617265206e6f74207265676973746572656420746f20766f74650000600082015250565b6000611567601e83611162565b915061157282611531565b602082019050919050565b600060208201905081810360008301526115968161155a565b9050919050565b7f596f75206861766520616c726561647920766f74656400000000000000000000600082015250565b60006115d3601683611162565b91506115de8261159d565b602082019050919050565b60006020820190508181036000830152611602816115c6565b9050919050565b7f496e76616c69642063616e646964617465000000000000000000000000000000600082015250565b600061163f601183611162565b915061164a82611609565b602082019050919050565b6000602082019050818103600083015261166e81611632565b9050919050565b7f4e487b7100000000000000000000000000000000000000000000000000000000600052601160045260246000fd5b60006116af826110ca565b91507fffffffffffffffffffffffffffffffffffffffffffffffffffffffffffffffff82036116e1576116e0611675565b5b600182019050919050565b7f4f6e6c792061646d696e2063616e20706572666f726d2074686973206163746960008201527f6f6e000000000000000000000000000000000000000000000000000000000000602082015250565b6000611748602283611162565b9150611753826116ec565b604082019050919050565b600060208201905081810360008301526117778161173b565b9050919050565b7f566f74696e6720697320616c7265616479206163746976650000000000000000600082015250565b60006117b4601883611162565b91506117bf8261177e565b602082019050919050565b600060208201905081810360008301526117e3816117a7565b9050919050565b7f4e6f2063616e6469646174657320617661696c61626c65000000000000000000600082015250565b6000611820601783611162565b915061182b826117ea565b602082019050919050565b6000602082019050818103600083015261184f81611813565b9050919050565b7f4e487b7100000000000000000000000000000000000000000000000000000000600052602260045260246000fd5b6000600282049050600182168061189d57607f821691505b6020821081036118b0576118af611856565b5b50919050565b7f566f74657220697320616c726561647920726567697374657265640000000000600082015250565b60006118ec601b83611162565b91506118f7826118b6565b602082019050919050565b6000602082019050818103600083015261191b816118df565b9050919050565b7f496e76616c696420766f74657220616464726573730000000000000000000000600082015250565b6000611958601583611162565b915061196382611922565b602082019050919050565b600060208201905081810360008301526119878161194b565b9050919050565b7f43616e6e6f74206164642063616e64696461746573207768696c6520766f746960008201527f6e67206973206163746976650000000000000000000000000000000000000000602082015250565b60006119ea602c83611162565b91506119f58261198e565b604082019050919050565b60006020820190508181036000830152611a19816119dd565b9050919050565b7f43616e646964617465206e616d652063616e6e6f7420626520656d7074790000600082015250565b6000611a56601e83611162565b9150611a6182611a20565b602082019050919050565b60006020820190508181036000830152611a8581611a49565b9050919050565b60008190508160005260206000209050919050565b60006020601f8301049050919050565b600082821b905092915050565b600060088302611aee7fffffffffffffffffffffffffffffffffffffffffffffffffffffffffffffffff82611ab1565b611af88683611ab1565b95508019841693508086168417925050509392505050565b6000819050919050565b6000611b35611b30611b2b846110ca565b611b10565b6110ca565b9050919050565b6000819050919050565b611b4f83611b1a565b611b63611b5b82611b3c565b848454611abe565b825550505050565b600090565b611b78611b6b565b611b83818484611b46565b505050565b5b81811015611ba757611b9c600082611b70565b600181019050611b89565b5050565b601f821115611bec57611bbd81611a8c565b611bc684611aa1565b81016020851015611bd5578190505b611be9611be185611aa1565b830182611b88565b50505b505050565b600082821c905092915050565b6000611c0f60001984600802611bf1565b1980831691505092915050565b6000611c288383611bfe565b9150826002028217905092915050565b611c4182611157565b67ffffffffffffffff811115611c5a57611c596112f0565b5b611c648254611885565b611c6f828285611bab565b600060209050601f831160018114611ca25760008415611c90578287015190505b611c9a8582611c1c565b865550611d02565b601f198416611cb086611a8c565b60005b82811015611cd857848901518255600182019150602085019450602081019050611cb3565b86831015611cf55784890151611cf1601f891682611bfe565b8355505b6001600288020188555050505b505050505050565b60006020820190508181036000830152611d2481846111ae565b905092915050565b7f566f74696e67206973207374696c6c2061637469766500000000000000000000600082015250565b6000611d62601683611162565b9150611d6d82611d2c565b602082019050919050565b60006020820190508181036000830152611d9181611d55565b9050919050565b7f4e6f2077696e6e657220666f756e640000000000000000000000000000000000600082015250565b6000611dce600f83611162565b9150611dd982611d98565b602082019050919050565b60006020820190508181036000830152611dfd81611dc1565b9050919050565b6000611e0f826110ca565b9150611e1a836110ca565b9250828201905080821115611e3257611e31611675565b5b9291505056fea2646970667358221220108a7898212f8e6d276f396a56b57273cb76e1ee7646ecc4fa47e6b3dafb5f9364736f6c634300081c0033",
  "linkReferences": {},
  "deployedLinkReferences": {}
}